:020000040000FA
:100000006803001081010000890100008B010000DD
:100010008D0100008F010000910100000000000030
:10002000000000000000000000000000930100003C
:1000300095010000000000009701000099010000F8
:100040009B010000B91900009B0100009B0100000A
:100050009B0100009B0100009B0100009B01000030
:100060009B0100009B0100009B0100009B01000020
:100070009B0100009B0100009B010000ED150000AA
:100080009B0100009B0100009B0100009B01000000
:100090009B0100009B0100009B0100009B010000F0
:1000A0009B0100009B010000090A00009B01000069
:1000B0009B0100009B0100009B0100009B010000D0
:1000C0009B0100009B0100009B01000000F002F872
:1000D00000F047F80AA090E8000C82448344AAF19B
:1000E0000107DA4501D100F03CF8AFF2090EBAE899
:1000F0000F0013F0010F18BFFB1A43F0010318475C
:10010000D4400000F4400000103A24BF78C878C101
:10011000FAD8520724BF30C830C144BF04680C600D
:10012000704700000023002400250026103A28BF55
:1001300078C1FBD8520728BF30C148BF0B60704759
:10014000662902F05D85002070471FB500F0C6F8F3
:1001500004000020002102F077F9E0601FBD10B517
:1001600010BD00F0D3FB1146FFF7EFFF01F09AFC42
:1001700000F0F1FB03B4FFF7F2FF03BC00F0B6F8A8
:100180000948804709480047FEE7FEE7FEE7FEE72B
:10019000FEE7FEE7FEE7FEE7FEE7FEE70448054967
:1001A000034A054B70470000D9180000CD0000003D
:1001B0006801001068030010680100100FB41CB53E
:1001C000074B06AA7B4469460090059800F06DF83D
:1001D0000020694600F07CF81CBC5DF814FB0000B0
:1001E000090100002DE9F0410E460446002020627E
:1001F0002046E168884730B3252805D0D4E901219D
:100200009047206A401CF2E7E168204600278847B3
:10021000050018D0A5F14100192802D820354FF467
:1002200000673246294620462760FFF789FF40B124
:10023000012804D0F61D26F007060836D8E7361D3B
:10024000D6E72846DAE7206ABDE8F0814FF00002E1
:1002500000B5134694469646203922BFA0E80C50BC
:10026000A0E80C50B1F12001BFF4F7AF090728BF97
:10027000A0E80C5048BF0CC05DF804EB890028BF13
:1002800040F8042B08BF704748BF20F8022B11F03C
:10029000804F18BF00F8012B7047704770477047B8
:1002A00001694A1C02610878704700B58FB0CDE93A
:1002B00001310021059105497944CDE9031011462A
:1002C0006846FFF78FFF0FB000BD0000E5FFFFFF9E
:1002D0000A6802F8010B0A60704700000048704786
:1002E000400000100048704720000010014918200D
:1002F000ABBEFEE72600020070470000FFFFFFFFD5
:100300002DE9FF4F0C461E464FF0FF378BB0D2E968
:100310000001DDF860800A908A46C1F30A5505B9EC
:100320003D46002108464FF00000BAF1000F00F4EE
:10033000400005DA00EB80004FF4400101EA500074
:100340004FEA9059B9F1010F00DDB9460A9850EA19
:100350004A000ED044F61050A5F2FF3545432F1445
:10036000B8F1000F1ED07542291E1EDDC9F1000232
:100370001CE0B8F1010F4FF0000001D0302103E084
:10038000F24305E02154401CB042FBDB3046002222
:10039000002121540B99C1F80880C1E900200FB059
:1003A000BDE8F08FBD1B6D1CDEE74A4600DA6942EE
:1003B00006A800F039FA06AB93E8070003AB83E820
:1003C000070050460A9901F063FC8DE80700A0F58C
:1003D00000501F3800900398002D0ADD42F21F01E3
:1003E0004A460844002303A90390684601F0CCFE66
:1003F00009E0A0F500504A461F38002303A90390E6
:10040000684601F0D6FE8DE807000004000C03D01A
:100410004FF0FF30410800E01046B8F1000F03D064
:100420000022009215461EE0751E05D400F076F9F4
:10043000303262556D1EF9D5B3460122084302D011
:1004400000227F1C04E02078302801D100227F1E8A
:10045000002A099784D01DE0112D07DA00F05EF91B
:10046000303262556D1C50EA0102F5D1084302D0CA
:100470000098C8B10EE00021681E05E0235C625CB4
:1004800063542254401E491C8142F7DBAB46A81B33
:10049000401E0990002004F80B000B98099AC0F840
:1004A0000880C0E9002B7AE711264FF0000857E7D3
:1004B0002DE9F04F88460446D21D22F0070191B085
:1004C000D1E90001CDE90A0101F0AAFF02460B982B
:1004D000C00F01D02D2007E02068810701D52B2017
:1004E00002E0202101EAC000032A099001D0072A76
:1004F00005DB03464146204600F056F90BE1207823
:10050000800601D5E06900E00620B8F1650F81465C
:1005100006D0B8F1660F18D0B8F1670F70D131E08E
:100520000020B9F1110F009001DB112301E009F166
:1005300001030AAA01A90CA8FFF7E2FEDDE90C708D
:10054000002609F10105834647E001204B46009053
:100550004FF000470AAA01A90CA8FFF7D1FEDDE978
:100560000DB00C995D46002610B909F101000D1877
:10057000B9EB050003D4C0F1FF3609F10105A5EB85
:1005800009002BE0B9F1010F01DA4FF00109002059
:10059000B9F1110F0090484601DD112300E0034638
:1005A0000AAA01A90CA8FFF7ABFEDDE90C704D46C5
:1005B00000268346207800070AD4AB4500DA5D4662
:1005C00001A8012D04DD411911F8011C302907D0C3
:1005D0004F4502DA17F1040F04DA012082460FE0DA
:1005E0006D1EEEE7002F02DCED1B3E4403E0781C9D
:1005F000A84200DD7D1CB81B00F1010A4FF0004746
:100600002078000703D4AA4501DB4FF0FF3A002110
:10061000B7F1004F0DF143088DF8431024D00220AC
:100620002B23002F01DA7F422D230A21021EA0F185
:10063000010000DC5FB197FBF1FC97FBF1F201FBDD
:100640001C7C17460CF1300C08F801CDEEE7A8F140
:10065000010003702188090501D5452100E06521CD
:10066000A0F1010800F8011C09980FA9A1EB0807E7
:10067000FF1D00B10120411901EBEA70A169384466
:10068000081A401EA0612078C00602D42046AFF3AD
:100690000080099828B1D4E901219047206A401CC4
:1006A00020622078C00622D52046AFF300801EE0ED
:1006B000002E04DBB34502DD01A8805D00E03020A0
:1006C000D4E901219047206A401C2062761CAAF1DF
:1006D00001005FEA000A0AD1FFF700FEC068016866
:1006E000405CD4E901219047206A401C2062281E0A
:1006F000A5F10105DCDC07E0D4E9012118F8010BC4
:100700009047206A401C2062381EA7F10107F3DCE5
:100710002046AFF30080032011B041E630B5B0F1C0
:100720000A0271F100034FEA900E4EEA817EB0EBAF
:100730000E0061EB91014FEA101E4EEA017E10EBB4
:100740000E0041EB11114FEA102E4EEA016E10EB34
:100750000E0041EB11214FEA104E4EEA014E10EB14
:100760000E0041EB1141401841F100014FEAD00069
:1007700040EA41704FEAD1014FEA810444EA9074A3
:1007800010EB800544EB01046D1944EB0404521B8B
:10079000A3414FF0000348BF0A3200D530BD401CD2
:1007A00041F1000130BD00002DE9F0411F46044633
:1007B00003260168072A01F4006004DB08B116A5CE
:1007C00005E016A503E008B115A500E015A521F088
:1007D00010002060A069C01EA0610FB1401EA06182
:1007E0002046AFF300804FB1D4E90121384690474D
:1007F000206A401C2062C01C206206E0206AFAE7E2
:10080000D4E9012115F8010B9047761EF8D2204655
:10081000AFF30080BDE8F0814E414E006E616E0086
:10082000494E4600696E66002DE9F047814616463E
:100830008AB0354878440DC88DE80D0032487844B8
:10084000801C03AC0DC884E80D0041F69B300844C1
:10085000372190FBF1F290FBF1F5A5F1800501FB4A
:1008600012041B3C02D56442012000E00020DFF8A6
:1008700098A080460027FA44AAF1BE0A0EE0E007DD
:100880000AD03246684607EB470101230AEB810193
:1008900001F08FFC8DE8070064107F1C002CEED166
:1008A000194F7F44AE3F19E0E80715D007EB04105D
:1008B0000DF1180A90E80E008AE80E00C068F042B8
:1008C00001D1981908903246012306A903A801F026
:1008D00070FC03AB83E807006D10641C002DE3D1AE
:1008E0004FF0010332466946B8F1000F03A802D069
:1008F00001F04AFC01E001F05CFCC9E90001C9F823
:1009000008200AB0BDE8F087482400007546FFF7CC
:10091000E9FCAE4605006946534620F007008546CF
:1009200018B020B5FFF73AFCBDE820404FF00006B4
:100930004FF000074FF000084FF0000BAC46ACE85A
:10094000C009ACE8C009ACE8C009ACE8C00921F0B6
:1009500007018D46704710B50446AFF3008020466E
:10096000BDE81040FFF706BC4FF0013C50F8042BE7
:1009700051F8043B9A4221D1A2EB0C03934313EAB2
:10098000CC1317D150F8042B51F8043B9A4215D1DF
:10099000A2EB0C03934313EACC130BD150F8042BB6
:1009A00051F8043B9A4209D1A2EB0C03934313EA9A
:1009B000CC13DBD04FF00000704700BFD01A01BA53
:1009C000B1FA81F101F0180122FA01F0CB40DBB25B
:1009D000C0B2C01AC1F120012CFA01F3D11A91431F
:1009E00011EAC311E6D17047012101FA00F005496F
:1009F000C04351E8002F024041E80023002BF8D10A
:100A0000704700BFC00000102DE9F84F364BDFF8EB
:100A1000DCA003F586754FF0010B40F6FF79002648
:100A20000027A02E08BFBDE8F88F18680BFA07F45E
:100A3000204254D05868204210D09C600AEB06082F
:100A4000D8E9020188421CD1F8B2FFF7CDFFD8F8EF
:100A50001010254B002942D001200FE0D868204219
:100A60003DD0002068602860F8B2FFF7BDFF1E4B44
:100A70000AEB06001C61016989B3022088471A4B02
:100A80002DE0401A484528BF48460144C8F80C10DC
:100A9000296849010BD55AF8061045F80C1C2A683C
:100AA000C2F3814200FA02F211444AF806102968A2
:100AB00009010BD5D8F8041045F8081C2A68C2F3C0
:100AC000415200FA02F21144C8F80410296821EAE0
:100AD000090108432860686840F00100686020351B
:100AE000143601379DE700BF00400050C4000010DD
:100AF000B0B5002000214FF4A072F02300F012FBEB
:100B0000222001F059F801F081F8304D4FF496346D
:100B100024B1288801F06AF8013CF9E72A4800214D
:100B2000426A132090470020B0BD00BF2DE9F84372
:100B3000304F14467A68002A41D055881688D2F87A
:100B40000480D2F80C9032462B4600F0EBFA2220BB
:100B500001F032F8F11DA4EB0800C908484300FB7E
:100B6000059401F053F87868DFF8AC954FF0000871
:100B7000418888451CD2002501888D4214D22078F6
:100B800005F00706F040C007484618BFB81C0088AB
:100B900001F02CF87868072E04D1018801398D42C4
:100BA00018BF01340135E7E708F101080134DFE738
:100BB00005480021426A13200024904701E04FF0CD
:100BC000FF342046BDE8F883982C00001800001080
:100BD000F8B5084F14460D460646227842B1304615
:100BE0002946FFF7A3FF7868013400880644F4E73C
:100BF0000020F8BD8C0000107CB5012000F0F0FA58
:100C0000DFF8C04C002600200621002200230096B9
:100C1000A04700200621012200F0EEFADFF8E054A0
:100C2000002006210122A8470020062100220223DD
:100C30000096A04700200721002202230096A0472B
:100C400000200821002202230096A047002009214D
:100C5000002202230096A04700200721012200F075
:100C6000CBFA002006210122A847002007210122FB
:100C7000A847002006210022A847DFF888447020FA
:100C80000121A04700200121A047002006210122C8
:100C9000A847002006210022A84773200121A04771
:100CA00000200021A0470446002006210122A84779
:100CB000DFF8700F81680569466A002088470220C6
:100CC000A847D048D049B047B4B9002000F074FF1D
:100CD00013200121B047DFF830547320A8470020CB
:100CE000A8470020A84704460020A847054613202F
:100CF0000021B04745EA0424DFF8B004472C40F057
:100D0000C7800121DFF8A8440170EA200021A04734
:100D1000EB202021A047EC200C21A047ED20C7218B
:100D2000A047E8203821A047E9201021A047F12062
:100D30000121A047F2201021A04740200121A04717
:100D400041200021A04742200021A047432010213C
:100D5000A04744200E21A04745202421A04746203B
:100D60000421A04747205021A04748200221A04746
:100D700049201321A0474A201921A0474B201921BF
:100D8000A0474C201621A04750201B21A0475120EE
:100D90003121A04752202F21A04753203F21A047B7
:100DA00054203F21A04755203E21A04756202F2107
:100DB000A04757207B21A04758200921A047592050
:100DC0000621A0475A200621A0475B200C21A047FE
:100DD0005C201D21A0475D20CC21A0471B201B21AA
:100DE000A0471A200121A04724202F21A047252019
:100DF0005721A04723208821A04718203621A0474B
:100E000019200121A04701200021A0471F2088218F
:100E1000A047BE4DC820A8471F208221A0473220EE
:100E2000A8471F209221A0473220A8471F20D22187
:100E3000A0473220A84717205521A04700200021B5
:100E4000A0472F201121A04731200021A0473220A8
:100E50000021A04728203821A047C820A8472820E3
:100E60003C21A0471620A821A0470E200021A04722
:100E70000F200021A04710200121A0471120402170
:100E8000A04712200021A04713200021A04730E1F5
:100E90000021C74D017001204FF48071A847022046
:100EA0004FF4E061A84704200021A847082040F241
:100EB0000721A84709200021A8470A200021A847A8
:100EC0000C200021A8470D200021A8470F20002159
:100ED000A84710200021A84711200021A847122070
:100EE0000021A84713200021A847884EC820B047FA
:100EF000102041F2B021A84711200721A847322035
:100F0000B047122040F2BD11A8473220B04713204D
:100F10004FF4A051A84729200E21A8473220B047FE
:100F200020200021A84721200021A84742F2935009
:100F3000844243D045F20840844267D1302040F6D5
:100F40000D31A847312041F62311A847322041F640
:100F50002641A847332042F21C61A847342042F2C0
:100F60001941A847352040F60B51A847362041F2D9
:100F70000601A84737204FF4C261A847382040F245
:100F80000671A84739204FF44171A8473A2040F62E
:100F90000561A8473B2040F60161A8473C204FF47B
:100FA0008771A8473D2040F20E51A8473E2040F2ED
:100FB0000341A8473F2040F207614BE03020002169
:100FC000A847312040F20761A847322040F205319E
:100FD000A84735200021A847362041F20461A847E0
:100FE00037204FF40171A84738200121A847392044
:100FF00040F20771A8473C200021A8473D200F215F
:1010000028E000BF0183080020BCBE00302006217C
:10101000A847312040F20111A84732200321A847F8
:1010200035204FF48371A847362040F60231A84797
:10103000372040F20231A847382040F20771A84714
:1010400039200721A8473C204FF4C061A8473D2024
:1010500040F20B21A84750200021A8475120EF2142
:10106000A84752200021A847532040F23F11A8472B
:1010700042F293504FF41C51844205D045F208408F
:10108000844218BF4FF427416020A8476120012106
:10109000A8476A200021A84780200021A847812076
:1010A0000021A84782200021A84783200021A847CB
:1010B00084200021A84785200021A84790201021E6
:1010C000A84792200021A84793200321A8479520F4
:1010D0004FF48871A84797200021A8479820002145
:1010E000A847032041F23801A847072040F23711F2
:1010F000A84704201C21012200F066F800207CBDD6
:10110000C9110000511B00002D1B0000291A00000E
:1011100001490880002070471800001023494860EA
:10112000002070472DE9F0410546C818A0F10108DC
:10113000A818471E1D480C46007801281DD11C4EDA
:10114000C5F30F210220B047E9B20320B047C7F32F
:101150000F210420B047F9B20520B047C4F30F2196
:101160000620B047E1B20720B047C8F30F2108209E
:10117000B0475FFA88F1092014E0A4B20C4E502069
:101180002146B0471FFA88F15120B047ADB2522036
:101190002946B047B9B25320B04720202146B04776
:1011A000212029463246BDE8F04110478C0000104E
:1011B000291C0000034A40011058C84000F00100FB
:1011C000704700BF14C00920114B002A03EB4010E8
:1011D0004FF0010303FA01F10CBFC1618161704757
:1011E000044900280A6842F4004308BF22F400437F
:1011F0000B607047C4C00F4001238B40044940017D
:10120000002A0A580CBF9A431A430A50704700BF7D
:1012100000C0092007480068C0F3015001380228C7
:101220009ABF05A151F82000042006490968B1FBC6
:10123000F0F07047A8C10F4001000000020000005C
:101240000800000014000010F0B59E460024C50000
:10125000174B0F2988BF012445EA84050F4655F82E
:1012600003C00F2988BF103FFFB27F000326BE4096
:101270002CEA0604EC50EC58BA402243EA5045EA06
:101280000302146C03EB8000B4431464156C0EFA73
:1012900007F42C431464012202FA01F1059A012A91
:1012A000826E14BF22EA0101114381660020F0BD65
:1012B00000C002402DE9FC47F74E0446307B820710
:1012C00002D44FF0FF3518E0E7B2142F11D1F14CE2
:1012D000002560681C2120F00200606006F110000B
:1012E0006561FEF7B3FF3571606840F00200606031
:1012F00003E0327922B16FF001052846BDE8FC8792
:101300006FF00305132FF8D8DFE807F00E1D730BFD
:101310000B0A0A0A0A0A0A0A0A0A0A0A319FACAF29
:10132000EBE76FF00605E8E7DA4900F0FB004A68F2
:10133000002522F002024A603073B06820F0FF00FE
:10134000B0604D61D9E7D34A40F00400536823F000
:101350000203536000235361536823F00403536076
:10136000307301203072506840F002005060002954
:101370003FF4A7AF0D01FFF74DFF4FEA00194FF003
:10138000000E02234FF002084FF0000CFE2B00F27B
:101390000E810020411C5943B0F5807F12D0B9FB6B
:1013A000F1F2954210D000F101001944F4D9A5EBF7
:1013B000020AA5EB0C01514582BF9446A0F1010E33
:1013C0009846E7E70233E1E798468646B1495FFA77
:1013D00088F008610868102F20F47F4008604FEA09
:1013E0000E200A6880B240EA020008603BD0B06874
:1013F00016E0F24940F004004A6822F002024A6016
:101400004A6842F004024A6001224A613073B068BF
:10141000022262F30700B0604A6842F002024A60AA
:10142000C1B201295CD1C4F3C141DFE801F002314E
:101430004A7B002000900020062100220023FFF7B5
:1014400003FFB06820F4C01049E0FFF7E3FEDB497A
:101450000A690968D2B2C1F3072101315143B0FBD7
:10146000F1F54AE73185002547E7B068524A104058
:10147000524A90427FF425AF002000294FF0060128
:101480004FF0000514BF00220122FFF79DFE34E754
:1014900020F4C010B060002000900020062100223F
:1014A0000323FFF7D1FE002006210122FFF7A4FE4F
:1014B000002006210122FFF787FEB06840F40020DB
:1014C0000DE020F4C010B060002000900020062144
:1014D00002220323FFF7B8FEB06840F48010B0602A
:1014E000C1B202290CD120F40010B060A0021CD4BB
:1014F000002000900020062102220323FFF7A4FE13
:10150000C4F30221052913D8AC48DFE801F0031425
:10151000202C3437016821F030010160016821F08E
:10152000C0012FE020F4C010B0606FF00A05E4E6BF
:101530006FF00705E1E6016821F030010160016804
:1015400021F040010160016841F080011AE001686A
:1015500021F030010160016841F040010160016843
:1015600021F080010EE0016821F030010160016886
:1015700041F0C00106E00168012201E00168022299
:1015800062F305110160C4F305310A1F0C2A0BD860
:101590000268013922F00F021143016060036FF00D
:1015A000090101EAE075A8E66FF00805A5E6BCF1BF
:1015B000000F7FF40BAF84E6FF0018000100080065
:1015C000C148C169007B400701EAE070704700BF75
:1015D000BD4801794279807901F0010162F341014E
:1015E00000F0010041EA8000704700BF70B5734809
:1015F000C46904F003010162C168890717D5B249C3
:101600000B690A6A934212D98D695DB16B1C8B61BB
:101610002B780668360706D5AE1C8E616D7843EAD6
:10162000052300E00B8D01320A6299B28160C16826
:10163000490722D5A44982680B69CD69AB421CD900
:101640004B6953B15D1C4D611A7003681B0704D5CB
:101650004B69120A5D1C4D611A70CB690A6901332E
:101660009342CB6109D100220A71426922F00F0234
:101670004261096809B101208847E00708D0924813
:1016800001214171016819B10220BDE8704008478D
:1016900070BD00BF00000340940000107CB58A4C70
:1016A000217BC9071DD10025A571A580206004F10B
:1016B00010001C21FEF7CAFD824E002007210222E5
:1016C00000230095B0470020082102220023009546
:1016D000B04700200921022200230095B0470120D5
:1016E000207300207CBD00BFB0B502282FD0012898
:1016F0002AD098BBEA484FF40041C0F88010BFF3ED
:101700004F8FE54ABFF36F8F00241368032543F41E
:1017100080631360294B5C615C621C605C601C61CF
:101720001D621368684D23F480631360AC71AC8054
:10173000C0F8801105F110001C21FEF787FD287B01
:1017400000F0FD00287336E06FF0030433E05E48DC
:10175000017BCA0705D14FF0FF342CE06FF0040481
:1017600029E08A074FF0000425D4E74A41F002013E
:10177000136843F480631360D2F8E43023F4401319
:10178000C2F8E430D2F8E43043F48013C2F8E43015
:101790000A4A546184718480017303201062D06806
:1017A000400701D59068FAE7BD484FF40041C0F802
:1017B0008011016000242046B0BD00BF000003403E
:1017C00010B502466FF00400C2B1B9B13E4B187BB0
:1017D00040075CBF4FF0FF3010BD187910B16FF0BB
:1017E000010010BD0020012498719C80C3E90412FF
:1017F00023490F22C3E9060018620A6010BD00BF2A
:1018000010B502466FF00400C2B1B9B12E4B187B7F
:1018100040075CBF4FF0FF3010BD187910B16FF07A
:10182000010010BD0020012498719C80C3E90410C0
:101830001349C3E906200F2218620A6010BD00BFD9
:10184000B0B503466FF00400CBB1C1B1BAB11E4CC4
:10185000207B40075CBF4FF0FF30B0BD207910B156
:101860006FF00100B0BD00200125A071A580C4E982
:10187000042103490F22C4E9063020620A60B0BD8A
:1018800014000340BCB50F4D0024002006210022A7
:1018900000230094A8470020072100220023009481
:1018A000A84700200821002200230094A847002018
:1018B0000921002200230094A84703480473002054
:1018C000BCBD00BF49120000940000100620704704
:1018D0000048704703020A0234482021C0F8A011D2
:1018E000D0F8A011890603D5D0F8A0114906FBD580
:1018F0000321C0F8041100212D4AC0F8A811C0F836
:10190000AC110121C0F80C11C0F88420AA22552383
:10191000C0F88C20C0F88C30C0F88010C0F88C2043
:10192000C0F88C30D0F888104901FBD50321C0F8ED
:101930008010AA21C0F88C105521C0F88C10D0F866
:10194000881001F04071B1F1407FF8D12321C0F837
:10195000A410AA2155220123C0F8AC10C0F8AC2075
:10196000C0F8A030C0F8AC10C0F8AC20D0F8A81077
:101970004905FBD50321C0F8A010AA21C0F8AC107E
:101980005521C0F8AC10D0F8A81001F44071B1F5A1
:10199000407FF8D107490422C0F8C4100021C0F8E4
:1019A000C811016862F30F310160704700C00F4039
:1019B00063000500DE872804B0B54FF040200168C1
:1019C00041F0010101605148016841F080710160FE
:1019D0008169B1F1FF3FFBDC80694F4DC0F30B1013
:1019E000286000F000FF0D4C4FF06632234600F0F7
:1019F00011FF0B4B002200F00DFF00F03BFD0949E9
:101A0000686001F031F801F003F84FF066322346C8
:101A100000F062FD00F0B8FEA860B0BD66660A4046
:101A20000000303F0000C84209490968890B48435B
:101A300068B100BF013800BF00BF00BF00BF00BFDA
:101A400000BF00BF00BF00BF00BF00BFF0E770478E
:101A5000140000102C480222016841F002010160CC
:101A6000D0F8E41021F01801C0F8E4100B48002170
:101A7000C16646F2A711816040F6B8314161016943
:101A800041F003010161016841F002010160044974
:101A90000A60012101607047C4C00F40044000404B
:101AA00000E100E0FFF7A8F81648FFF737FB4FF416
:101AB000FC60FFF72DFB4CF21860FFF729FBFFF7E6
:101AC00017F81148016841F4805101600F4810492E
:101AD00001601048016841F480210160FFF7BAFFFE
:101AE0000D4E0E4C0EA5706800F092FF02460B469C
:101AF00020462946FEF762FB0520C8212246FFF753
:101B000067F8F0E7C4410000C4C00F400040034044
:101B10000401200004C002408000001000000010FA
:101B2000566F6C74733A2025662056001CB58DF8EC
:101B3000070056480DF10601C369846A0DF10700DC
:101B400001229847A047C007FCD19DF806001CBDA4
:101B5000F8B50546481EB0FA80F00C464209002050
:101B600009210026FFF748FB0727002F22D4002079
:101B700007210022FFF728FB0120FFF755FF012C6A
:101B800008D125FA07F000F0010200200921FFF733
:101B90001BFB05E000200921FFF70CFBB8400643C2
:101BA000002007210122FFF70FFB0120FFF73CFF78
:101BB000013FDAE7F0B2F8BDF8B504463348012139
:101BC000D0E9095647691320A84770208DF80340D3
:101BD000ADF801000DF101000321B847B047C0077F
:101BE000FCD113200021A847F8BD00BF1CB540BAA6
:101BF000ADF80600254802214269846A0DF106000D
:101C00009047A047C007FCD11CBD00BF80B51F484E
:101C10000121426A132090477220BDE88040FFF7FF
:101C200085BF00BF982C0000F8B50C4670218DF8D8
:101C300001108DF80300000A8DF8020013480121FD
:101C4000D0E9095647691320A8470DF10100032187
:101C5000B847B047C007FCD113200021A847722025
:101C60008DF80100200A8DF803408DF80200132042
:101C70000121A8470DF101000321B847B047C00773
:101C8000FCD113200021A847F8BD00BF982C00000C
:101C90005FEA400C08BF91F0000F4FEA8C234FEA37
:101CA000C12243EA51514FEA1C5018BF00F5F040E1
:101CB0004FEA300018BF41F000415FEA6C5C00F071
:101CC0002980BCF1FF3F08BF40F080407047130CF3
:101CD00006BF12044FF0100C4FF0000C130E04BF9F
:101CE00012020CF1080C130F04BF12010CF1040CCA
:101CF000930F04BF92000CF1020CD30F04BF5200EB
:101D00000CF1010C11464FF00002A0F11F00A0EBF6
:101D10000C00704711F0004F08BF704731F00041D0
:101D20003FF4D5AF0B0C06BF09044FF0100C4FF079
:101D3000000C0B0E04BF09020CF1080C0B0F04BFC2
:101D400009010CF1040C8B0F04BF89000CF1020C8B
:101D5000CB0F04BF49000CF1010CCCF1200322FA97
:101D600003F341EA030102FA0CF2A0EB0C0000F1CC
:101D70000100704723F07F4720F07F4C80EA03008A
:101D800000F00040ACEB070303F57C5303F1FF03C5
:101D90002DE9804909B44FEA144324EA03484FEA85
:101DA000154B25EA0B4E0FF2042606EB13273E785F
:101DB00003FB0667C7F5000707FB06F64FEAD646A2
:101DC00006F102064FEA543707FB066CCCF1005CC3
:101DD0004FEA1C472CEA074C0CFB06F507FB06F400
:101DE00004EB15464FEA961649085FEA320234BF03
:101DF00000204FF000404FEAD13706FB07FC4FEAC6
:101E00001C4C0CFB0BF7D21B03FB0CF761EB07011F
:101E10000CFB0EF7B0EB074072EB17420CFB08F718
:101E200034BFA2EB0742B2EB074261EB17414FEA26
:101E30000C444FEA910706FB07FC4FEA1C4C0CFBD5
:101E40000BF7B0EBC74072EB573203FB0CF734BF14
:101E5000A2EBC742B2EBC74261EB57310CFB0EF766
:101E6000B0EBC70072EB57720CFB08F734BFA2EB64
:101E7000C702B2EBC70261EB57714FEA816141EAD9
:101E800092114FEA826242EA90124FEA806004EBBC
:101E9000CC04039F4FEAD13706FB07FC4FEA1C4CEA
:101EA0000CFB0BF7D21B03FB0CF761EB07010CFBE0
:101EB0000EF7B0EB074072EB17420CFB08F734BF8C
:101EC000A2EB0742B2EB074261EB17414FEA8C5598
:101ED00004EB9C244FEA910706FB07FC4FEA1C4CDD
:101EE0000CFB0BF7B0EBC74072EB573203FB0CF760
:101EF00034BFA2EBC742B2EBC74261EB57310CFBD8
:101F00000EF7B0EBC70072EB57720CFB08F734BF4B
:101F1000A2EBC702B2EBC70261EB57714FEA8161D6
:101F200041EA92114FEA826242EA90124FEA8060DF
:101F300015EB4C2544F100044FEAD13706FB07FCB2
:101F40004FEA1C4C0CFB0BF7D21B03FB0CF761EBAD
:101F500007010CFB0EF7B0EB074072EB17420CFBCE
:101F600008F734BFA2EB0742B2EB074261EB17411F
:101F70004FEA813141EA92414FEA823242EA90428D
:101F80004FEA80304FEA0C7615EB1C1544F1000443
:101F900048EA03434EEA0B484FF0000EB2EB080C40
:101FA00071EB030724BF624639464EEB0E0E4FF02D
:101FB000000B0018524149414BEB0B0BB2EB080CE4
:101FC00071EB03077BF1000B24BF624639464EEBF1
:101FD0000E0E4FF0000B0018524149414BEB0B0B1A
:101FE000B2EB080C71EB03077BF1000B24BF6246D8
:101FF00039464EEB0E0E51EA020718BF46F00106B5
:1020000016EB0E7655F1000254F1000103D5BDE840
:102010008901BDE80088BDE88901BDE80048B6191E
:10202000524141EB0101A3F10103704780807F7EA3
:102030007D7C7B7A7978777676757473727171703E
:102040006F6E6E6D6C6C6B6A6A69686867666665F0
:102050006464636362616160605F5F5E5E5D5D5C7E
:102060005C5B5B5A5A5959585857575656555555EF
:102070005454535352525251515050504F4F4F4E4F
:102080004E4D4D4D4C4C4C4B4B4B4A4A4A4949499D
:1020900048484847474747464646454545444444DF
:1020A0004443434343424242424141419C46002B08
:1020B00030D477002BD04FEA37071CB503B44FF06C
:1020C00010004FF01001BAF1000F06D0BCF1000F64
:1020D000DCBF40F0080040F008014FF000000FBCEA
:1020E000BDE810400BF1010BBBF1010F08BF5FEA27
:1020F000170722BF12F1010211F101014FF0004157
:1021000043F1000300F0004043EA00007047F9D3B8
:102110005708D0E746EA06464FEA164613F1400F45
:102120001FDD13F1200FDFBF16430A4600212033C5
:102130005B42BED0C3F1200746EA06464FEA164688
:1021400002FA07F746EA070622FA03F2C3F120076C
:1021500001FA07F742EA070221FA03F14FF0000300
:10216000A7E746EA020646EA06464FEA164646EA68
:102170000106BCBF46EA0646360C4FF000034FF09E
:1021800000024FF0000194E72DE9804C70B49A46AC
:10219000934691E8380007C831EA400C48BF34EA5A
:1021A000430C03D5FFF7E6FDFFF780FFF0BCBDE869
:1021B000008C2DE9804C70B49A46934691E8380023
:1021C00007C810F0804F08BF13F0804F03D100F014
:1021D00005F8FFF76BFFF0BCBDE8008C20F07F47EF
:1021E00023F07F4C80EA030000F0004007EB0C0373
:1021F000A3F57C53A3F1FE0392F0000F00F0B3802F
:1022000095F0000F00F077802DE901494FEA114069
:1022100021EA00484FEA144624EA064700FB06FC80
:1022200008FB06F607FB08F818EB06484CEB164CC3
:1022300000FB07F718EB07484CEB17404FEA124B2F
:1022400022EA0B4E4FEA154625EA06470BFB06FC31
:102250000EFB06F607FB0EFE1EEB064E4CEB164C75
:102260000BFB07F71EEB074E4CEB174B18EB0B085D
:1022700040F1000018EB0E0B58EB000840F1000095
:102280008F1A4FF000014FF000063CBFC943661B98
:1022900014BFB5EB040C00213CBFC943F61B4FEA49
:1022A000174427EA04454FEA1C472CEA074C04FB75
:1022B000076205FB07F70CFB05F616EB074642EB3A
:1022C000174204FB0CFC16EB0C4642EB1C421BEBCA
:1022D000060658EB020241414EEA8E0E46EA9E0681
:1022E00001D5BDE80189B619524141EB0101A3F1C5
:1022F0000103BDE801894FEA144524EA05464FEA87
:10230000114721EA074C05FB07F406FB07F70CFB16
:1023100006F111EB074144EB174405FB0CFC11EBF4
:102320000C4144EB1C444FEA124722EA074C05FBE0
:1023300007F206FB07F70CFB06F616EB074642EB27
:10234000174205FB0CFC16EB0C4642EB1C456A18C9
:1023500054F1000148BF7047B619524141EB0101E9
:10236000A3F10103704795F0000F37D04FEA1142F7
:1023700021EA02464FEA144724EA074C02FB07F120
:1023800006FB07F70CFB06F414EB074441EB17417F
:1023900002FB0CFC14EB0C4441EB1C414FEA1547CB
:1023A00025EA074C02FB07F506FB07F70CFB06F6D0
:1023B00016EB074645EB174502FB0CFC16EB0C46EB
:1023C00045EB1C42121951F1000148BF7047B61984
:1023D000524141EB0101A3F1010370474FEA14455B
:1023E00024EA05464FEA114721EA074C05FB07F1AD
:1023F00006FB07F70CFB06F212EB074241EB174115
:1024000005FB0CFC12EB0C4251EB1C414FF000069B
:1024100048BF7047921841EB0101A3F101037047D7
:10242000490050EAC12018BF04204A0D18BF40F0EF
:10243000010040F2FF72B2EB515F08BF40F00200B2
:10244000012808BF0520704710B500290AD0087878
:10245000002807D005487844FEF786FA002801D006
:10246000002010BD0248784410BD00009E1D0000F1
:10247000961D000021F0004201F00043A2F16052DD
:10248000B2F5801F28BFD2F17F6C0BD95FEA001C28
:1024900043EAC20242EB507018BF704728BF20F0D9
:1024A00001007047B2F5801FBCBF184670474FEA65
:1024B000410C1CF5001F02D2084600F09CBB70B511
:1024C00000F052FA00000089FFF7F6BF4FF000401D
:1024D000A0F58000704700002DE9C04130B4DFF85E
:1024E000A0C23CEA111418BF3CEA131400F0EC80BF
:1024F0001CEA111481EA030544EAD57418BF1CEAEA
:10250000131500F0C780A4EB050404F17F7404F5F3
:1025100000344FF0004545EAC12145EAC32341EAB2
:10252000505143EA52534FEAC0204FEAC222994227
:1025300008BF904200F09C804FEA13650FF24016EE
:10254000765D4FEA134506FB05F7C7F1807706FB7A
:1025500007F74FEAD737A7FB03687642A7FB06CEFB
:10256000C8F5803838BFA8F1010807FB08E6A6FBCC
:10257000028C4FF0000EE6FB03CEDCF1000CCEF136
:10258000004E38BFAEF1010EA6FB0C584FF000070D
:10259000E6FB0E87A1FB08C6A0FB07CE16EB0E06D6
:1025A0004FF0000545F10005E1FB076515F1E04E30
:1025B0007EBFA4F580345FEA46066D4116F18007C0
:1025C00045F100054FEA172747EA05674FEA152549
:1025D0004FEA0666A6F1DE46B6F1805F1FD938469F
:1025E00005EBC47124F0010C01EB0C11BCF1FE6F82
:1025F00002D8F0BCBDE8008124425CBF01F5801E1A
:102600009EEAC47F02D4F0BCBDE80081244238D4E5
:10261000A1F1C041F0BCBDE8004100F0F3B94FEAC0
:10262000D02040EA41504FEAD1214FEAD22242EA7B
:1026300043524FEAD323A7FB028607FB036605FB41
:1026400002661EEA0E0F58BFA6EB0056B6EB005608
:102650004FEA520E4EEAC37E18EB0E0E56EB530EA7
:10266000BDD518EB02085E417F1C55F10005B6E7A9
:102670004FF480154FF000074FF000064FF00008B0
:10268000ADE701F1C04101F000414FF00000F0BCA6
:10269000BDE800810CEA131511EA0C1F00D00CE014
:1026A00013EA0C1F00F025804FF0000081EA0301BF
:1026B00001F00041F0BCBDE80081F0BCBDE8004184
:1026C00081EA030100F09EB9F0BCBDE8004170B59D
:1026D00000F04AF9097EFC3E00F007B84FF0000018
:1026E00081EA030101F00041704781EA030100F033
:1026F00089B9F0BCBDE8004122494FF000007047A5
:10270000FFFDFBF9F7F5F4F2F0EEEDEBE9E8E6E4B6
:10271000E3E1E0DEDDDBDAD8D7D5D4D3D1D0CFCD3D
:10272000CCCBCAC8C7C6C5C4C2C1C0BFBEBDBCBB76
:10273000BAB9B8B7B6B5B4B3B2B1B0AFAEADACAB71
:10274000AAA9A8A8A7A6A5A4A3A3A2A1A09F9F9E4B
:102750009D9C9C9B9A9999989797969595949393FD
:10276000929191908F8F8E8E8D8C8C8B8B8A898994
:102770008888878786858584848383828281818017
:102780000000FF070000F87F4FEA41034FEA535370
:10279000A3F58063D3F11E03C8BFD3F1210C0CDD78
:1027A0004FF0004242EAC12242EA505232FA03FCA0
:1027B0008CEAE17CACEBE1707047102BC4BF0020C9
:1027C000704703F5787CBCF1FF3F04D06FF0004206
:1027D00082EA2100704770B500F0C6F84992248063
:1027E00000207047F2E710F0004248BF4042B0FAC4
:1027F00080F310FA03F10AD0C3F11D0303F58063DF
:1028000002EB03524FEA415002EBD12170474FF0E7
:102810000000704770B5DFF848C11CEA111E1EBFEA
:102820001CEA13159EEA0C0F95EA0C0F00F06F805E
:1028300081EA03044EEAD47EAE4421EA4C1123EA35
:102840004C1341F4801143F48013AEF17F7EA1FB61
:10285000024CA0FB0365361955EB0C05A1FB034C9C
:102860004CF10003A0FB021C16EB0C06654153F172
:102870000003094218BF46F0010613F4007F0BD194
:102880004FEA03314FEA053041EA155140EA16504C
:1028900034036FF003020AE04FEAC3214FEAC52078
:1028A00041EA555140EA5650F4026FF0020202EB41
:1028B0002E4201EB025585EACE710AD05FEA440C44
:1028C00018BF24F0004450F1000041F1000120EA5B
:1028D000D47040F2FE7C624500D270BDA84214BFA5
:1028E0004FF080444FF04044002E08BF0024BEF15A
:1028F000806FA8BFA1F1C041BDE8704080F2828026
:1029000001F1C04101F000414FF0000070470CEAB6
:1029100013159EEA0C0F18BF95EA0C0F06D081EA3A
:10292000030E4FF000000EF0004170BD00F01CF8E7
:102930008900013E00F007B800F009B84FEA430CE7
:102940005FEA5C5C08D081EA030100F05BB84FEA03
:10295000410C5FEA5C5CF6D102494FF00000704721
:102960000000FF070000F87F0EF1020E2EF0030EAC
:102970005EF8046B364205D4012A43EB030515F5D6
:10298000001F12D8012841EB010C1CF5001F0CD8C8
:102990000ED14FEAD17C0CEB4C0C0CF1020C15F56E
:1029A000001F08BF4CEBD37C04E04FF0080C01E0A3
:1029B0004FEAD37C0CEB4C0526FA05F606F0070629
:1029C000B6F1040C06D20EEB860CBDE870404CF05C
:1029D000010C6047DFE80CF0090B02024FF00041E8
:1029E000A1F500214FF0000070BD194610460128E6
:1029F00051EB010418BFD4F5001484BF002001F08E
:102A0000004170BD0808A0F500114FEA3101704780
:102A100043004FEAD30C4FEA3C0C43401FBF400732
:102A20000CF1605113F0FE4F70471CF0006F03D1A2
:102A30000CF00041002070470CF0004343EA507056
:102A400040EACC0010B500F090F800BF0000009202
:102A50004FEA0001FFF7D6BF4FF00041A1F500217A
:102A60004FF00000704700004FF47F0C1CEAD012BA
:102A70001EBF1CEAD11392EA0C0F93EA0C0F00F070
:102A8000478090EA010F48BF42F480724FF0004C3B
:102A90004CEA00204CEA012102EB0302A0FB0113E7
:102AA000A2F50002002918BF43F001035B0028BF14
:102AB0004FEA330342EB22425FEA132C4CEBC25045
:102AC0002EBFBCEB436FB2F57C0F70474FEA036C2F
:102AD000BCF1004F08BF20F00100B2F57C0F38BFF9
:102AE00070470BD582F0FF0212F5803FC8BF7047D8
:102AF00000F1C040D8BF00F00040704700F5000C66
:102B00005FEA4C0C48BF7047B0F1C04000F073B8AA
:102B10000CEAD11390EA010F48BF42F4807262457B
:102B200038BF634504D280EA010000F000407047DE
:102B300010B500F01AF800BF8900013E00F007B898
:102B400000F009B85FEA410C5FEA1C6C08D080EA2B
:102B5000010000F050B85FEA400C5FEA1C6CF6D14F
:102B60004FF00040A0F5800070470EF1020E2EF0ED
:102B7000030E5EF8044B244204D44FEA4102B2F142
:102B80007F4F11D84FEA4003B3F17F4F0CD80ED1DD
:102B90004FEAD07C0CEB4C0C0CF1020CB2F17F4FE5
:102BA00008BF4CEBD17C04E04FF0080C01E04FEA89
:102BB000D17C0CEB4C0324FA03F404F00704B4F1C9
:102BC000040C06D20EEB840CBDE810404CF0010C56
:102BD0006047DFE80CF0070802024FF00040A0F564
:102BE000800010BD0846420018BFD2F1807288BF35
:102BF00000F0004010BDFF2141EAD050C0057047F1
:102C0000FDF756BC02400000000000A000000000DC
:102C100005400000000000C8000000000C4000005B
:102C20000000409C00000000194000000020BCBED5
:102C30000000000034400000BFC91B8E00000004EB
:102C4000B5400000504BCFD06607E2CF0100000036
:102C50006C4100003E8251AADFEEA7340100000063
:102C6000D9420000DCB5A0E23A301F97FFFFFFFF1A
:102C7000B4450000FD25A0C8E9A3C14FFFFFFFFF39
:102C8000FF3F00000000008000000000FF3F000048
:102C90000000008000000000D1180000CD180000E6
:102CA0009D16000085180000E916000001180000BC
:102CB000C117000041180000C1150000B512000046
:102CC000D11500000000000000000000000000001E
:102CD00000000000000000000000000000000000F4
:102CE00000000000000000000000000000000000E4
:102CF000000000000000800180018001800180014F
:102D000080018001800180018001800180018001BB
:102D100000000000800180010000000000000000B1
:102D20000000000000000000CC00CC00CC00CC0073
:102D3000CC00CC00000000000000000000000000FB
:102D40000000000000000000000000000000000083
:102D50000000000000000000000000000000000073
:102D6000600C600C600C30063006FE1FFE1F300643
:102D700038071803FE1FFE1F180318038C018C016F
:102D80008C01000000008000E003F80F9C0E8C1CFA
:102D90008C188C009800F801E007800E801C8C18BD
:102DA0008C189C18B80CF00FE00380008000000025
:102DB000000000000000000000000E181B0C110CA9
:102DC00011061106110311039B018E01C038C06C5E
:102DD00060446044304430441844186C0C3800009F
:102DE000000000000000E001F00338071806180694
:102DF0003003F001F000F8009C310E33061E061C73
:102E0000061C063FFC73F0210000000000000000DB
:102E100000000000000000000C000C000C000C0082
:102E20000C000C000000000000000000000000008A
:102E30000000000000000000000000000000000092
:102E4000000000000000000200038001C000C0007C
:102E50006000600030003000300030003000300092
:102E60003000300060006000C000C000800100033E
:102E700000020000000020006000C000800180010E
:102E80000003000300060006000600060006000618
:102E9000000600060003000380018001C0006000FE
:102EA0002000000000000000000000000000000002
:102EB000C000C000D806F807E00130033807000062
:102EC0000000000000000000000000000000000002
:102ED00000000000000000000000000000000000F2
:102EE00080018001800180018001FC3FFC3F800166
:102EF00080018001800180010000000000000000CE
:102F000000000000000000000000000000000000C1
:102F100000000000000000000000000000000000B1
:102F2000000000000000800180010001000180001D
:102F30000000000000000000000000000000000091
:102F4000000000000000000000000000E007E007B3
:102F50000000000000000000000000000000000071
:102F60000000000000000000000000000000000061
:102F70000000000000000000000000000000000051
:102F8000000000000000C000C000000000000000C1
:102F9000000000000000000C000C00060006000607
:102FA0000003000300038003800180018001C00052
:102FB000C000C000600060000000000000000000D1
:102FC000000000000000E003F007380E180C0C1899
:102FD0000C180C180C180C180C180C180C180C18D1
:102FE000180C380EF007E00300000000000000009D
:102FF00000000000000000018001C001F001980104
:1030000088018001800180018001800180018001B0
:1030100080018001800180010000000000000000AC
:10302000000000000000E003F80F180C0C180C184A
:1030300000180018000C000600038001C0006000AA
:1030400030001800FC1FFC1F000000000000000002
:10305000000000000000E001F807180E0C0C0C0C3A
:10306000000C0006C003C007000C001800180C1864
:103070000C18180CF807E003000000000000000026
:10308000000000000000000C000E000F000F800D7B
:10309000C00C600C600C300C180C0C0CFC3FFC3F9E
:1030A000000C000C000C000C0000000000000000F0
:1030B000000000000000F80FF80F180018000C00C6
:1030C000EC03FC071C0E001C0018001800180C185C
:1030D0001C0C180EF807E0030000000000000000C0
:1030E000000000000000C007F00F381C181818007E
:1030F0000C00CC03EC0F3C0E1C1C0C180C180C180C
:10310000181C380EF007E00300000000000000006B
:10311000000000000000FC1FFC1F000C0006000661
:10312000000380038001C001C000E0006000600077
:10313000700030003000300000000000000000008F
:10314000000000000000E003F007380E180C180C17
:10315000180C3806F007F007180C0C180C180C188F
:103160000C18380CF80FE00300000000000000000D
:10317000000000000000E003F007380E1C0C0C18E3
:103180000C180C181C1C381EF81BE0190018000C39
:10319000000C1C0EF807F001000000000000000009
:1031A000000000000000000000000000000000001F
:1031B000800180010000000000000000000000000D
:1031C00000000000800180010000000000000000FD
:1031D00000000000000000000000000000000000EF
:1031E00080018001000000000000000000000000DD
:1031F000000000008001800100010001800000004B
:1032000000000000000000000000000000000000BE
:10321000000000000010001C800FE003F800180000
:10322000F800E003800F001C001000000000000008
:10323000000000000000000000000000000000008E
:1032400000000000F81F000000000000F81F000050
:10325000000000000000000000000000000000006E
:10326000000000000000000000000000000000005E
:103270000000000008003800F001C007001F00181F
:10328000001FC007F0013800080000000000000027
:10329000000000000000E003F80F180C0C180C18D8
:1032A0000018000C000600038001C000C000C00030
:1032B00000000000C000C00000000000000000008E
:1032C0000000000000000000E00718180420C229D8
:1032D000224A114409440944094409221113E20C09
:1032E000024004201818E007000000000000000061
:1032F00000000000000080038003C006C006C00676
:10330000600C600C301830183018F83FF83F1C7013
:103310000C600C6006C006C0000000000000000049
:10332000000000000000FC03FC0F0C0C0C180C1833
:103330000C180C0CFC07FC0F0C180C300C300C306B
:103340000C300C18FC1FFC070000000000000000FF
:10335000000000000000C007F01F38381C300C705F
:10336000066006000600060006000600060006606D
:103370000C701C30F01FE00700000000000000008F
:10338000000000000000FE03FE0F060E06180618DF
:103390000630063006300630063006300630061895
:1033A0000618060EFE0FFE030000000000000000DD
:1033B000000000000000FC3FFC3F0C000C000C0073
:1033C0000C000C00FC1FFC1F0C000C000C000C007F
:1033D0000C000C00FC3FFC3F00000000000000005F
:1033E000000000000000F83FF83F18001800180027
:1033F00018001800F81FF81F18001800180018000F
:10340000180018001800180000000000000000005C
:10341000000000000000E00FF83F3C780E6006E07E
:1034200007C00300030003FE03FE03C007C006C07D
:103430000EC03CF0F83FE00F00000000000000006C
:103440000000000000000C300C300C300C300C3050
:103450000C300C30FC3FFC3F0C300C300C300C308E
:103460000C300C300C300C3000000000000000006C
:1034700000000000000080018001800180018001C7
:103480008001800180018001800180018001800134
:103490008001800180018001000000000000000028
:1034A00000000000000000060006000600060006FE
:1034B00000060006000600060006000600061806C4
:1034C00018063807F003E0010000000000000000CB
:1034D00000000000000006300618060C0606060371
:1034E0008601C60066007600DE008E010603060631
:1034F000060C061806300660000000000000000000
:103500000000000000001800180018001800180043
:1035100018001800180018001800180018001800EB
:1035200018001800F81FF81F00000000000000003D
:103530000000000000000EE01EF01EF01EF036D865
:1035400036D836D836D866CC66CC66CCC6C6C6C6A3
:10355000C6C6C6C686C386C30000000000000000C1
:103560000000000000000C301C303C303C306C305F
:103570006C30CC30CC308C310C330C330C360C36F8
:103580000C3C0C3C0C380C3000000000000000002B
:10359000000000000000E007F81F1C380E700660F5
:1035A00003C003C003C003C003C003C003C0066060
:1035B0000E701C38F81FE00700000000000000003B
:1035C000000000000000FC0FFC1F0C380C300C3019
:1035D0000C300C300C18FC1FFC070C000C000C000D
:1035E0000C000C000C000C000000000000000000AB
:1035F000000000000000E007F81F1C380E70066095
:1036000003E003C003C003C003C003C007E00663B8
:103610000E3F1C3CF83FE0F700C000000000000037
:10362000000000000000FE0FFE1F063806300630C6
:1036300006300638FE1FFE0706030606060C0618AF
:10364000061806300630066000000000000000008A
:10365000000000000000E003F80F1C0C0C180C1810
:103660000C001C00F803E00F001E00380630063086
:103670000E301C1CF80FE0070000000000000000E6
:10368000000000000000FE7FFE7F800180018001BD
:103690008001800180018001800180018001800122
:1036A0008001800180018001000000000000000016
:1036B0000000000000000C300C300C300C300C30DE
:1036C0000C300C300C300C300C300C300C300C301A
:1036D0000C301818F81FE007000000000000000080
:1036E00000000000000003600630063006300C18B1
:1036F0000C180C18180C180C380E30063006700711
:1037000060036003C001C001000000000000000071
:103710000000000000000360C361C361C361663341
:10372000663366336633663366336C1B6C1B6C1B07
:103730002C1A3C1E380E380E00000000000000005D
:103740000000000000000FE00C7018303018700C02
:10375000600EC00780038003C003E006700C301CBD
:1037600018180C300E6007E0000000000000000098
:1037700000000000000003C006600C301C38381840
:10378000300C6006E007C0038001800180018001E9
:103790008001800180018001000000000000000025
:1037A000000000000000FC7FFC7F0060003000187B
:1037B000000C000600038001C0006000300018000B
:1037C0000C000600FE7FFE7F0000000000000000ED
:1037D000000000000000E003E00360006000600003
:1037E00060006000600060006000600060006000D9
:1037F0006000600060006000600060006000E00346
:10380000E003000000003000300060006000600055
:10381000C000C000C000C001800180018001000321
:103820000003000300060006000000000000000086
:10383000000000000000E003E003000300030003B9
:103840000003000300030003000300030003000360
:103850000003000300030003000300030003E00370
:10386000E003000000000000C001C001600360032D
:10387000600330063006180C180C00000000000031
:103880000000000000000000000000000000000038
:103890000000000000000000000000000000000028
:1038A0000000000000000000000000000000000018
:1038B000000000000000FFFFFFFF0000000000000C
:1038C0000000000000000C000C000C000C000C00BC
:1038D0000C000000000000000000000000000000DC
:1038E00000000000000000000000000000000000D8
:1038F00000000000000000000000000000000000C8
:10390000F003F8071C0C0C0C000FF00FF80C0C0C5B
:103910000C0C1C0FF80FF018000000000000000055
:10392000000000000000180018001800180018001F
:10393000D803F80F380C1818181818181818181871
:103940001818380CF80FD803000000000000000021
:103950000000000000000000000000000000000067
:10396000C003F007300E180C1800180018001800DB
:10397000180C300EF007C00300000000000000002B
:1039800000000000000000180018001800180018BF
:10399000C01BF01F301C1818181818181818181801
:1039A0001818301CF01FC01B0000000000000000B1
:1039B0000000000000000000000000000000000007
:1039C000C003F00F300C1818F81FF81F180018006B
:1039D0003818301CF00FC007000000000000000085
:1039E000000000000000800FC00FC000C000C00039
:1039F000F007F007C000C000C000C000C000C00059
:103A0000C000C000C000C0000000000000000000B6
:103A100000000000000000000000000000000000A6
:103A2000E00DF80F180E0C0C0C0C0C0C0C0C0C0C04
:103A30000C0C180EF80FE00D000C0C0C1C06F8070F
:103A4000F00100000000180018001800180018000D
:103A5000D807F80F381C181818181818181818183C
:103A60001818181818181818000000000000000096
:103A7000000000000000C000C000000000000000C6
:103A8000C000C000C000C000C000C000C000C00036
:103A9000C000C000C000C000000000000000000026
:103AA000000000000000C000C00000000000000096
:103AB000C000C000C000C000C000C000C000C00006
:103AC000C000C000C000C000C000C000C000F800BE
:103AD0007800000000000C000C000C000C000C0032
:103AE0000C0C0C060C038C01CC006C00FC009C013F
:103AF0008C030C030C060C0C0000000000000000FE
:103B0000000000000000C000C000C000C000C000F5
:103B1000C000C000C000C000C000C000C000C000A5
:103B2000C000C000C000C000000000000000000095
:103B30000000000000000000000000000000000085
:103B40007C3CFF7EC7E383C183C183C183C183C142
:103B500083C183C183C183C1000000000000000055
:103B60000000000000000000000000000000000055
:103B70009807F80F381C181818181818181818185B
:103B80001818181818181818000000000000000075
:103B90000000000000000000000000000000000025
:103BA000C003F00F300C1818181818181818181827
:103BB0001818300CF00FC0030000000000000000D7
:103BC00000000000000000000000000000000000F5
:103BD000D803F80F380C18181818181818181818CF
:103BE0001818380CF80FD80318001800180018001F
:103BF00018000000000000000000000000000000AD
:103C0000C01BF01F301C181818181818181818188E
:103C10001818301CF01FC01B0018001800180018DE
:103C2000001800000000000000000000000000007C
:103C3000B007F0037000300030003000300030007A
:103C400030003000300030000000000000000000B4
:103C50000000000000000000000000000000000064
:103C6000E003F003380E180C3800F003C007000C16
:103C7000180C380EF007E003000000000000000000
:103C800000000000000000008000C000C000C00074
:103C9000F007F007C000C000C000C000C000C000B6
:103CA000C000C000C0078007000000000000000046
:103CB0000000000000000000000000000000000004
:103CC0001818181818181818181818181818181874
:103CD0001818381CF01FE019000000000000000058
:103CE00000000000000000000000000000000000D4
:103CF0000C18180C180C180C30063006300660032F
:103D000060036003C001C00100000000000000006B
:103D100000000000000000000000000000000000A3
:103D2000C141C141C3616363636363633636363641
:103D300036361C1C1C1C1C1C00000000000000006F
:103D40000000000000000000000000000000000073
:103D50001C38381C300C6006C003C003C003C0030D
:103D60006006300C381C1C38000000000000000009
:103D70000000000000000000000000000000000043
:103D80001830301830187018600C600CE00CC00649
:103D9000C00680038003800380018001C001F00021
:103DA00070000000000000000000000000000000A3
:103DB000FC1FFC1F000C000600038001C000600017
:103DC00030001800FC1FFC1F000000000000000075
:103DD00000000000000000038001C000C000C0001F
:103DE000C000C000C0006000600030006000400003
:103DF000C000C000C000C000C000C00080010003BF
:103E0000000000000000800180018001800180012D
:103E1000800180018001800180018001800180019A
:103E2000800180018001800180018001800180018A
:103E30008001000000006000C000C001800180011E
:103E400080018001800100030003000600030001DF
:103E5000800180018001800180018001C00060003C
:103E60000000000000000000000000000000000052
:103E700000000000F010F81F080F00000000000014
:103E80000000000000000000000000000000000032
:103E90000000000000000000000000000000000022
:103EA0000000000000000000000000000000000012
:103EB0000000000000000000000000000000000002
:103EC0000000000000000000000000000000C0032F
:103ED000300C08100420042002400240024002403E
:103EE0000240042004200810300CC0030000000031
:103EF0000000000000000000000000000000C003FF
:103F0000F00FF81FFC3FFC3FFE7FFE7FFE7FFE7F31
:103F1000FE7FFC3FFC3FF81FF00FC00300000000D5
:103F20000000000000000000000000000000000091
:103F30000000E007F00F18181818181818181818AB
:103F40001818F00FE007000000000000000000005B
:103F50000000000000000000000000000000000061
:103F60000000E007F00FF81FF81FF81FF81FF81FF8
:103F7000F81FF00FE0070000000000000000000044
:103F80000000000000000000000000000000000031
:103F90000000000000000000000000008001C003DD
:103FA0006006300C18181818F81FF81F00000000E1
:103FB0000000000000000000000000000000000001
:103FC0000000000000000000000000008001C003AD
:103FD000E007F00FF81FF81FF81FF81F000000009F
:103FE000000000000000000000000000F81FF81FA3
:103FF00018181818300C6006C0038001000000007B
:1040000000000000000000000000000000000000B0
:10401000000000000000000000000000F81FF81F72
:10402000F81FF81FF00FE007C00380010000000038
:104030000000000000000000000000000000000080
:104040000000000000000000000000000000000070
:104050000000E001F00198018C01860186018C01CD
:104060009801F001E00100000000000000000000E5
:104070000000000000000000000000000000000040
:104080000000E001F001F801FC01FE01FE01FC016D
:10409000F801F001E0010000000000000000000055
:1040A0000000000000000000000000000000000010
:1040B00000008007800F801980318061806180312D
:1040C0008019800F80070000000000000000000041
:1040D00000000000000000000000000000000000E0
:1040E00000008007800F801F803F807F807F803F9F
:1040F000801F800F8007000000000000000000000B
:10410000000000000000C001200220024001300633
:10411000080808080808080808080808080820020D
:10412000200220022002200220022002200220027F
:10413000200200000000C001E003E003C001F0071E
:10414000D80DD80DD80DD80DD80DD80DD80D6003C9
:104150006003600360036003600360036003600347
:10416000600300000000C001200220024001300670
:104170000808080808080410022002204001200254
:104180002002100408080808041004100420044049
:10419000000000000000C001E003E003C001F007E0
:1041A000D80DD80DD80DCC19C631C261C00160033D
:1041B00060037006380C180C0C180C180C300C60CE
:1041C0000000000010001800200000007000000037
:1041D000C42C000010420000000000101C00000071
:1041E000080100002C4200002000001048030000DD
:1041F000240100001C00000043000000F8FFFFFF46
:104200000C0000000E0000000F0000002E00000057
:10421000200000000000000000000000000000007E
:0C4220000000000000E1F505FFFF0000B9
:040000050000018175
:00000001FF
